{
  "contractName": "ProofOfExistence",
  "abi": [
    {
      "constant": false,
      "inputs": [],
      "name": "renounceOwnership",
      "outputs": [],
      "payable": false,
      "stateMutability": "nonpayable",
      "type": "function"
    },
    {
      "constant": true,
      "inputs": [],
      "name": "owner",
      "outputs": [
        {
          "name": "",
          "type": "address"
        }
      ],
      "payable": false,
      "stateMutability": "view",
      "type": "function"
    },
    {
      "constant": true,
      "inputs": [],
      "name": "isOwner",
      "outputs": [
        {
          "name": "",
          "type": "bool"
        }
      ],
      "payable": false,
      "stateMutability": "view",
      "type": "function"
    },
    {
      "constant": false,
      "inputs": [
        {
          "name": "newOwner",
          "type": "address"
        }
      ],
      "name": "transferOwnership",
      "outputs": [],
      "payable": false,
      "stateMutability": "nonpayable",
      "type": "function"
    },
    {
      "payable": true,
      "stateMutability": "payable",
      "type": "fallback"
    },
    {
      "anonymous": false,
      "inputs": [
        {
          "indexed": true,
          "name": "previousOwner",
          "type": "address"
        },
        {
          "indexed": true,
          "name": "newOwner",
          "type": "address"
        }
      ],
      "name": "OwnershipTransferred",
      "type": "event"
    },
    {
      "constant": false,
      "inputs": [
        {
          "name": "_ipfsHash",
          "type": "string"
        },
        {
          "name": "_tags",
          "type": "bytes32[]"
        }
      ],
      "name": "addProof",
      "outputs": [],
      "payable": false,
      "stateMutability": "nonpayable",
      "type": "function"
    },
    {
      "constant": true,
      "inputs": [
        {
          "name": "_user",
          "type": "address"
        },
        {
          "name": "_key",
          "type": "uint256"
        }
      ],
      "name": "getProof",
      "outputs": [
        {
          "name": "",
          "type": "string"
        },
        {
          "name": "",
          "type": "bytes32[]"
        }
      ],
      "payable": false,
      "stateMutability": "view",
      "type": "function"
    },
    {
      "constant": true,
      "inputs": [
        {
          "name": "_user",
          "type": "address"
        }
      ],
      "name": "getNumProofs",
      "outputs": [
        {
          "name": "",
          "type": "uint256"
        }
      ],
      "payable": false,
      "stateMutability": "view",
      "type": "function"
    }
  ],
  "bytecode": "0x6080604052336000806101000a81548173ffffffffffffffffffffffffffffffffffffffff021916908373ffffffffffffffffffffffffffffffffffffffff1602179055506000809054906101000a900473ffffffffffffffffffffffffffffffffffffffff1673ffffffffffffffffffffffffffffffffffffffff16600073ffffffffffffffffffffffffffffffffffffffff167f8be0079c531659141344cd1fd0a4f28419497f9722a3daafe3b4186f6b6457e060405160405180910390a3610ae7806100cf6000396000f3fe608060405260043610610083576000357c0100000000000000000000000000000000000000000000000000000000900463ffffffff1680634f5b5a5214610088578063715018a6146101a45780638da5cb5b146101bb5780638f32d59b146102125780639df74d2014610241578063d126d661146102a6578063f2fde38b14610402575b600080fd5b34801561009457600080fd5b506100e1600480360360408110156100ab57600080fd5b81019080803573ffffffffffffffffffffffffffffffffffffffff16906020019092919080359060200190929190505050610453565b604051808060200180602001838103835285818151815260200191508051906020019080838360005b8381101561012557808201518184015260208101905061010a565b50505050905090810190601f1680156101525780820380516001836020036101000a031916815260200191505b50838103825284818151815260200191508051906020019060200280838360005b8381101561018e578082015181840152602081019050610173565b5050505090500194505050505060405180910390f35b3480156101b057600080fd5b506101b96105bd565b005b3480156101c757600080fd5b506101d061068f565b604051808273ffffffffffffffffffffffffffffffffffffffff1673ffffffffffffffffffffffffffffffffffffffff16815260200191505060405180910390f35b34801561021e57600080fd5b506102276106b8565b604051808215151515815260200191505060405180910390f35b34801561024d57600080fd5b506102906004803603602081101561026457600080fd5b81019080803573ffffffffffffffffffffffffffffffffffffffff16906020019092919050505061070f565b6040518082815260200191505060405180910390f35b3480156102b257600080fd5b50610400600480360360408110156102c957600080fd5b81019080803590602001906401000000008111156102e657600080fd5b8201836020820111156102f857600080fd5b8035906020019184600183028401116401000000008311171561031a57600080fd5b91908080601f016020809104026020016040519081016040528093929190818152602001838380828437600081840152601f19601f8201169050808301925050505050505091929192908035906020019064010000000081111561037d57600080fd5b82018360208201111561038f57600080fd5b803590602001918460208302840111640100000000831117156103b157600080fd5b919080806020026020016040519081016040528093929190818152602001838360200280828437600081840152601f19601f82011690508083019250505050505050919291929050505061075b565b005b34801561040e57600080fd5b506104516004803603602081101561042557600080fd5b81019080803573ffffffffffffffffffffffffffffffffffffffff16906020019092919050505061088b565b005b6060806000600160008673ffffffffffffffffffffffffffffffffffffffff1673ffffffffffffffffffffffffffffffffffffffff1681526020019081526020016000209050806000016000858152602001908152602001600020816002016000868152602001908152602001600020818054600181600116156101000203166002900480601f0160208091040260200160405190810160405280929190818152602001828054600181600116156101000203166002900480156105585780601f1061052d57610100808354040283529160200191610558565b820191906000526020600020905b81548152906001019060200180831161053b57829003601f168201915b50505050509150808054806020026020016040519081016040528092919081815260200182805480156105aa57602002820191906000526020600020905b815481526020019060010190808311610596575b5050505050905092509250509250929050565b6105c56106b8565b15156105d057600080fd5b600073ffffffffffffffffffffffffffffffffffffffff166000809054906101000a900473ffffffffffffffffffffffffffffffffffffffff1673ffffffffffffffffffffffffffffffffffffffff167f8be0079c531659141344cd1fd0a4f28419497f9722a3daafe3b4186f6b6457e060405160405180910390a360008060006101000a81548173ffffffffffffffffffffffffffffffffffffffff021916908373ffffffffffffffffffffffffffffffffffffffff160217905550565b60008060009054906101000a900473ffffffffffffffffffffffffffffffffffffffff16905090565b60008060009054906101000a900473ffffffffffffffffffffffffffffffffffffffff1673ffffffffffffffffffffffffffffffffffffffff163373ffffffffffffffffffffffffffffffffffffffff1614905090565b6000600160008373ffffffffffffffffffffffffffffffffffffffff1673ffffffffffffffffffffffffffffffffffffffff168152602001908152602001600020600101549050919050565b60003390506000600160008373ffffffffffffffffffffffffffffffffffffffff1673ffffffffffffffffffffffffffffffffffffffff168152602001908152602001600020600101600081548092919060010191905055905083600160008473ffffffffffffffffffffffffffffffffffffffff1673ffffffffffffffffffffffffffffffffffffffff1681526020019081526020016000206000016000838152602001908152602001600020908051906020019061081c9291906109a4565b5082600160008473ffffffffffffffffffffffffffffffffffffffff1673ffffffffffffffffffffffffffffffffffffffff16815260200190815260200160002060020160008381526020019081526020016000209080519060200190610884929190610a24565b5050505050565b6108936106b8565b151561089e57600080fd5b6108a7816108aa565b50565b600073ffffffffffffffffffffffffffffffffffffffff168173ffffffffffffffffffffffffffffffffffffffff16141515156108e657600080fd5b8073ffffffffffffffffffffffffffffffffffffffff166000809054906101000a900473ffffffffffffffffffffffffffffffffffffffff1673ffffffffffffffffffffffffffffffffffffffff167f8be0079c531659141344cd1fd0a4f28419497f9722a3daafe3b4186f6b6457e060405160405180910390a3806000806101000a81548173ffffffffffffffffffffffffffffffffffffffff021916908373ffffffffffffffffffffffffffffffffffffffff16021790555050565b828054600181600116156101000203166002900490600052602060002090601f016020900481019282601f106109e557805160ff1916838001178555610a13565b82800160010185558215610a13579182015b82811115610a125782518255916020019190600101906109f7565b5b509050610a209190610a71565b5090565b828054828255906000526020600020908101928215610a60579160200282015b82811115610a5f578251825591602001919060010190610a44565b5b509050610a6d9190610a96565b5090565b610a9391905b80821115610a8f576000816000905550600101610a77565b5090565b90565b610ab891905b80821115610ab4576000816000905550600101610a9c565b5090565b9056fea165627a7a723058206567d413cd22db9aabd0362ab51a85c984b550be210cc3ba7c1c1cb43582f60f0029",
  "source": "pragma solidity 0.5.0;\nimport \"./Ownable.sol\";\n\ncontract ProofOfExistence is Ownable {\n\n\tstruct userStorage {\n\t\t//maps integer key to ipfs Hash of a file\n\t\tmapping(uint => string) ipfsHashes;\n\n\t\t//keeps track of number of proofs uploaded by each user\n\t\tuint256 numProofs;\n\n\t\t//maps integer key to a byte-array of tags\n\t\tmapping(uint => bytes32[]) tags;\n\t}\n\n\t//maps address of user to a userStorage struct\n\tmapping(address => userStorage) private userToProofs; \n\n\tfunction() external payable {\n\t\trevert();\n\t}\n\n\t//\n\tfunction addProof(string memory _ipfsHash, bytes32[] memory _tags) public {\n\t\taddress _user = msg.sender;\n\t\tuint key = userToProofs[_user].numProofs++;\n\t\tuserToProofs[_user].ipfsHashes[key] = _ipfsHash;\n\t\tuserToProofs[_user].tags[key] = _tags;\n\t}\n\t\n\tfunction getProof(address _user, uint256 _key) public view returns(string memory, bytes32[] memory) {\n\t    userStorage storage uS = userToProofs[_user];\n\t    return (uS.ipfsHashes[_key], uS.tags[_key]);\n\t}\n\n\tfunction getNumProofs(address _user) public view returns(uint256) {\n\t\treturn userToProofs[_user].numProofs;\n\t}\n\n\n}",
  "sourcePath": "/home/krtk6160/finalProject/contracts/ProofOfExistence.sol",
  "compiler": {
    "name": "solc",
    "version": "0.5.0+commit.1d4f565a.Emscripten.clang"
  },
  "schemaVersion": "3.0.1",
  "updatedAt": "2019-01-28T10:46:07.624Z",
  "devdoc": {
    "methods": {
      "isOwner()": {
        "return": "true if `msg.sender` is the owner of the contract."
      },
      "owner()": {
        "return": "the address of the owner."
      },
      "renounceOwnership()": {
        "details": "Allows the current owner to relinquish control of the contract."
      },
      "transferOwnership(address)": {
        "details": "Allows the current owner to transfer control of the contract to a newOwner.",
        "params": {
          "newOwner": "The address to transfer ownership to."
        }
      }
    }
  },
  "userdoc": {
    "methods": {
      "renounceOwnership()": {
        "notice": "Renouncing to ownership will leave the contract without an owner. It will not be possible to call the functions with the `onlyOwner` modifier anymore."
      }
    }
  }
}