{
  "contractName": "ProofOfExistence",
  "abi": [
    {
      "payable": true,
      "stateMutability": "payable",
      "type": "fallback"
    },
    {
      "constant": false,
      "inputs": [
        {
          "name": "_ipfsHash",
          "type": "string"
        },
        {
          "name": "_tags",
          "type": "bytes32[]"
        }
      ],
      "name": "addProof",
      "outputs": [],
      "payable": false,
      "stateMutability": "nonpayable",
      "type": "function",
      "signature": "0xd126d661"
    },
    {
      "constant": true,
      "inputs": [
        {
          "name": "_user",
          "type": "address"
        },
        {
          "name": "_key",
          "type": "uint256"
        }
      ],
      "name": "getProof",
      "outputs": [
        {
          "name": "",
          "type": "string"
        },
        {
          "name": "",
          "type": "bytes32[]"
        }
      ],
      "payable": false,
      "stateMutability": "view",
      "type": "function",
      "signature": "0x4f5b5a52"
    },
    {
      "constant": true,
      "inputs": [
        {
          "name": "_user",
          "type": "address"
        }
      ],
      "name": "getNumProofs",
      "outputs": [
        {
          "name": "",
          "type": "uint256"
        }
      ],
      "payable": false,
      "stateMutability": "view",
      "type": "function",
      "signature": "0x9df74d20"
    }
  ],
  "bytecode": "0x608060405234801561001057600080fd5b5061075d806100206000396000f3fe608060405260043610610057576000357c0100000000000000000000000000000000000000000000000000000000900463ffffffff1680634f5b5a521461005c5780639df74d2014610178578063d126d661146101dd575b600080fd5b34801561006857600080fd5b506100b56004803603604081101561007f57600080fd5b81019080803573ffffffffffffffffffffffffffffffffffffffff16906020019092919080359060200190929190505050610339565b604051808060200180602001838103835285818151815260200191508051906020019080838360005b838110156100f95780820151818401526020810190506100de565b50505050905090810190601f1680156101265780820380516001836020036101000a031916815260200191505b50838103825284818151815260200191508051906020019060200280838360005b83811015610162578082015181840152602081019050610147565b5050505090500194505050505060405180910390f35b34801561018457600080fd5b506101c76004803603602081101561019b57600080fd5b81019080803573ffffffffffffffffffffffffffffffffffffffff1690602001909291905050506104a2565b6040518082815260200191505060405180910390f35b3480156101e957600080fd5b506103376004803603604081101561020057600080fd5b810190808035906020019064010000000081111561021d57600080fd5b82018360208201111561022f57600080fd5b8035906020019184600183028401116401000000008311171561025157600080fd5b91908080601f016020809104026020016040519081016040528093929190818152602001838380828437600081840152601f19601f820116905080830192505050505050509192919290803590602001906401000000008111156102b457600080fd5b8201836020820111156102c657600080fd5b803590602001918460208302840111640100000000831117156102e857600080fd5b919080806020026020016040519081016040528093929190818152602001838360200280828437600081840152601f19601f8201169050808301925050505050505091929192905050506104ed565b005b60608060008060008673ffffffffffffffffffffffffffffffffffffffff1673ffffffffffffffffffffffffffffffffffffffff1681526020019081526020016000209050806000016000858152602001908152602001600020816002016000868152602001908152602001600020818054600181600116156101000203166002900480601f01602080910402602001604051908101604052809291908181526020018280546001816001161561010002031660029004801561043d5780601f106104125761010080835404028352916020019161043d565b820191906000526020600020905b81548152906001019060200180831161042057829003601f168201915b505050505091508080548060200260200160405190810160405280929190818152602001828054801561048f57602002820191906000526020600020905b81548152602001906001019080831161047b575b5050505050905092509250509250929050565b60008060008373ffffffffffffffffffffffffffffffffffffffff1673ffffffffffffffffffffffffffffffffffffffff168152602001908152602001600020600101549050919050565b600033905060008060008373ffffffffffffffffffffffffffffffffffffffff1673ffffffffffffffffffffffffffffffffffffffff1681526020019081526020016000206001016000815480929190600101919050559050836000808473ffffffffffffffffffffffffffffffffffffffff1673ffffffffffffffffffffffffffffffffffffffff168152602001908152602001600020600001600083815260200190815260200160002090805190602001906105ac92919061061a565b50826000808473ffffffffffffffffffffffffffffffffffffffff1673ffffffffffffffffffffffffffffffffffffffff1681526020019081526020016000206002016000838152602001908152602001600020908051906020019061061392919061069a565b5050505050565b828054600181600116156101000203166002900490600052602060002090601f016020900481019282601f1061065b57805160ff1916838001178555610689565b82800160010185558215610689579182015b8281111561068857825182559160200191906001019061066d565b5b50905061069691906106e7565b5090565b8280548282559060005260206000209081019282156106d6579160200282015b828111156106d55782518255916020019190600101906106ba565b5b5090506106e3919061070c565b5090565b61070991905b808211156107055760008160009055506001016106ed565b5090565b90565b61072e91905b8082111561072a576000816000905550600101610712565b5090565b9056fea165627a7a723058209c8905da460ee53a57fe55f827273eaa16b70af16a5f6d912ef0fd9fc542fcc00029",
  "source": "pragma solidity 0.5.0;\nimport \"./SafeMath.sol\";\n\ncontract ProofOfExistence {\n\tusing SafeMath for uint256;\n\n\tstruct userStorage {\n\t\t//maps integer key to ipfs Hash of a file\n\t\tmapping(uint => string) ipfsHashes;\n\n\t\t//keeps track of number of proofs uploaded by each user\n\t\tuint256 numProofs;\n\n\t\t//maps integer key to a byte-array of tags\n\t\tmapping(uint => bytes32[]) tags;\n\t}\n\n\t//maps address of user to a userStorage struct\n\tmapping(address => userStorage) private userToProofs; \n\n\tfunction() external payable {\n\t\trevert();\n\t}\n\n\t//\n\tfunction addProof(string memory _ipfsHash, bytes32[] memory _tags) public {\n\t\taddress _user = msg.sender;\n\t\tuint key = userToProofs[_user].numProofs++;\n\t\tuserToProofs[_user].ipfsHashes[key] = _ipfsHash;\n\t\tuserToProofs[_user].tags[key] = _tags;\n\t}\n\t\n\tfunction getProof(address _user, uint256 _key) public view returns(string memory, bytes32[] memory) {\n\t    userStorage storage uS = userToProofs[_user];\n\t    return (uS.ipfsHashes[_key], uS.tags[_key]);\n\t}\n\n\tfunction getNumProofs(address _user) public view returns(uint256) {\n\t\treturn userToProofs[_user].numProofs;\n\t}\n\n\n}",
  "sourcePath": "/home/krtk6160/finalProject/contracts/ProofOfExistence.sol",
  "compiler": {
    "name": "solc",
    "version": "0.5.0+commit.1d4f565a.Emscripten.clang"
  },
  "schemaVersion": "3.0.1",
  "updatedAt": "2019-01-28T12:00:34.810Z",
  "devdoc": {
    "methods": {}
  },
  "userdoc": {
    "methods": {}
  }
}